{
  "_format": "hh-sol-artifact-1",
  "contractName": "LensCampaign",
  "sourceName": "contracts/LensCampaign.sol",
  "abi": [
    {
      "inputs": [
        {
          "internalType": "contract ERC20",
          "name": "_asset",
          "type": "address"
        },
        {
          "internalType": "address",
          "name": "_profileScore",
          "type": "address"
        },
        {
          "internalType": "uint256",
          "name": "_publicationId",
          "type": "uint256"
        },
        {
          "internalType": "uint256",
          "name": "_userId",
          "type": "uint256"
        },
        {
          "internalType": "uint256",
          "name": "_campaingDuration",
          "type": "uint256"
        },
        {
          "internalType": "uint256",
          "name": "_postPayout",
          "type": "uint256"
        },
        {
          "internalType": "uint256",
          "name": "_maxPostPayout",
          "type": "uint256"
        },
        {
          "internalType": "uint256",
          "name": "_clickPayout",
          "type": "uint256"
        },
        {
          "internalType": "uint256",
          "name": "_maxClickPayout",
          "type": "uint256"
        },
        {
          "internalType": "uint256",
          "name": "_actionPayout",
          "type": "uint256"
        },
        {
          "internalType": "uint256",
          "name": "_maxActionPayout",
          "type": "uint256"
        }
      ],
      "stateMutability": "nonpayable",
      "type": "constructor"
    },
    {
      "anonymous": false,
      "inputs": [
        {
          "indexed": true,
          "internalType": "address",
          "name": "previousOwner",
          "type": "address"
        },
        {
          "indexed": true,
          "internalType": "address",
          "name": "newOwner",
          "type": "address"
        }
      ],
      "name": "OwnershipTransferred",
      "type": "event"
    },
    {
      "inputs": [],
      "name": "LensHub",
      "outputs": [
        {
          "internalType": "contract ILensHub",
          "name": "",
          "type": "address"
        }
      ],
      "stateMutability": "view",
      "type": "function"
    },
    {
      "inputs": [],
      "name": "campaignDuration",
      "outputs": [
        {
          "internalType": "uint256",
          "name": "",
          "type": "uint256"
        }
      ],
      "stateMutability": "view",
      "type": "function"
    },
    {
      "inputs": [
        {
          "internalType": "uint256",
          "name": "amount",
          "type": "uint256"
        }
      ],
      "name": "depositBudget",
      "outputs": [],
      "stateMutability": "nonpayable",
      "type": "function"
    },
    {
      "inputs": [
        {
          "components": [
            {
              "internalType": "uint256",
              "name": "profileId",
              "type": "uint256"
            },
            {
              "internalType": "string",
              "name": "contentURI",
              "type": "string"
            },
            {
              "internalType": "address",
              "name": "collectModule",
              "type": "address"
            },
            {
              "internalType": "bytes",
              "name": "collectModuleInitData",
              "type": "bytes"
            },
            {
              "internalType": "address",
              "name": "referenceModule",
              "type": "address"
            },
            {
              "internalType": "bytes",
              "name": "referenceModuleInitData",
              "type": "bytes"
            },
            {
              "components": [
                {
                  "internalType": "uint8",
                  "name": "v",
                  "type": "uint8"
                },
                {
                  "internalType": "bytes32",
                  "name": "r",
                  "type": "bytes32"
                },
                {
                  "internalType": "bytes32",
                  "name": "s",
                  "type": "bytes32"
                },
                {
                  "internalType": "uint256",
                  "name": "deadline",
                  "type": "uint256"
                }
              ],
              "internalType": "struct DataTypes.EIP712Signature",
              "name": "sig",
              "type": "tuple"
            }
          ],
          "internalType": "struct DataTypes.PostWithSigData",
          "name": "postData",
          "type": "tuple"
        }
      ],
      "name": "handlePost",
      "outputs": [],
      "stateMutability": "nonpayable",
      "type": "function"
    },
    {
      "inputs": [],
      "name": "owner",
      "outputs": [
        {
          "internalType": "address",
          "name": "",
          "type": "address"
        }
      ],
      "stateMutability": "view",
      "type": "function"
    },
    {
      "inputs": [
        {
          "internalType": "address",
          "name": "_toBePaid",
          "type": "address"
        },
        {
          "internalType": "uint256",
          "name": "nAction",
          "type": "uint256"
        }
      ],
      "name": "payForAction",
      "outputs": [],
      "stateMutability": "nonpayable",
      "type": "function"
    },
    {
      "inputs": [
        {
          "internalType": "address",
          "name": "_toBePaid",
          "type": "address"
        },
        {
          "internalType": "uint256",
          "name": "nClick",
          "type": "uint256"
        }
      ],
      "name": "payForClick",
      "outputs": [],
      "stateMutability": "nonpayable",
      "type": "function"
    },
    {
      "inputs": [],
      "name": "payouts",
      "outputs": [
        {
          "internalType": "uint256",
          "name": "postPayout",
          "type": "uint256"
        },
        {
          "internalType": "uint256",
          "name": "maxPostPayout",
          "type": "uint256"
        },
        {
          "internalType": "uint256",
          "name": "leftPostPayout",
          "type": "uint256"
        },
        {
          "internalType": "uint256",
          "name": "clickPayout",
          "type": "uint256"
        },
        {
          "internalType": "uint256",
          "name": "maxClickPayout",
          "type": "uint256"
        },
        {
          "internalType": "uint256",
          "name": "leftClickPayout",
          "type": "uint256"
        },
        {
          "internalType": "uint256",
          "name": "actionPayout",
          "type": "uint256"
        },
        {
          "internalType": "uint256",
          "name": "maxActionPayout",
          "type": "uint256"
        },
        {
          "internalType": "uint256",
          "name": "leftActionPayout",
          "type": "uint256"
        }
      ],
      "stateMutability": "view",
      "type": "function"
    },
    {
      "inputs": [],
      "name": "profileScore",
      "outputs": [
        {
          "internalType": "contract IProfileScore",
          "name": "",
          "type": "address"
        }
      ],
      "stateMutability": "view",
      "type": "function"
    },
    {
      "inputs": [],
      "name": "publicationId",
      "outputs": [
        {
          "internalType": "uint256",
          "name": "",
          "type": "uint256"
        }
      ],
      "stateMutability": "view",
      "type": "function"
    },
    {
      "inputs": [],
      "name": "renounceOwnership",
      "outputs": [],
      "stateMutability": "nonpayable",
      "type": "function"
    },
    {
      "inputs": [],
      "name": "rewardToken",
      "outputs": [
        {
          "internalType": "contract ERC20",
          "name": "",
          "type": "address"
        }
      ],
      "stateMutability": "view",
      "type": "function"
    },
    {
      "inputs": [],
      "name": "startCampaign",
      "outputs": [
        {
          "internalType": "uint256",
          "name": "",
          "type": "uint256"
        }
      ],
      "stateMutability": "view",
      "type": "function"
    },
    {
      "inputs": [
        {
          "internalType": "address",
          "name": "newOwner",
          "type": "address"
        }
      ],
      "name": "transferOwnership",
      "outputs": [],
      "stateMutability": "nonpayable",
      "type": "function"
    },
    {
      "inputs": [],
      "name": "userId",
      "outputs": [
        {
          "internalType": "uint256",
          "name": "",
          "type": "uint256"
        }
      ],
      "stateMutability": "view",
      "type": "function"
    },
    {
      "inputs": [],
      "name": "withdrawBudget",
      "outputs": [],
      "stateMutability": "nonpayable",
      "type": "function"
    }
  ],
  "bytecode": "0x6101206040523480156200001257600080fd5b5060405162001762380380620017628339810160408190526200003591620000ff565b620000403362000096565b6001600160a01b039a8b1660805260a0989098529790981660e05260c09490945260019290925560035560048190556005556006556007839055600892909255600955600a819055600b55426101005262000198565b600080546001600160a01b038381166001600160a01b0319831681178455604051919092169283917f8be0079c531659141344cd1fd0a4f28419497f9722a3daafe3b4186f6b6457e09190a35050565b6001600160a01b0381168114620000fc57600080fd5b50565b60008060008060008060008060008060006101608c8e0312156200012257600080fd5b8b516200012f81620000e6565b60208d0151909b506200014281620000e6565b809a505060408c0151985060608c0151975060808c0151965060a08c0151955060c08c0151945060e08c015193506101008c015192506101208c015191506101408c015190509295989b509295989b9093969950565b60805160a05160c05160e051610100516115236200023f6000396000818161027c0152818161033d015281816104b60152818161083f0152610ed301526000818161010a0152818161075c015281816109f601528181610abf01528181610b9001528181610ceb0152610dbc01526000610186015260006101e70152600081816102d2015281816103a90152818161056c015281816105c00152610f8601526115236000f3fe608060405234801561001057600080fd5b50600436106101005760003560e01c8063934fa45311610097578063c398d56d11610066578063c398d56d146102b1578063f2fde38b146102ba578063f7c618c1146102cd578063fe3afd62146102f457600080fd5b8063934fa453146101e2578063a247bc3214610209578063a8b78ed014610277578063a8c8a3a11461029e57600080fd5b806358975919116100d35780635897591914610181578063715018a6146101b657806382fd4498146101be5780638da5cb5b146101d157600080fd5b80632952308e146101055780633e2f2e9214610149578063570f94541461015e578063579a583e14610179575b600080fd5b61012c7f000000000000000000000000000000000000000000000000000000000000000081565b6040516001600160a01b0390911681526020015b60405180910390f35b61015c6101573660046110b9565b610307565b005b61012c73db46d1dc155634fbc732f92e853b10b288ad5a1d81565b61015c610489565b6101a87f000000000000000000000000000000000000000000000000000000000000000081565b604051908152602001610140565b61015c610711565b61015c6101cc3660046110d2565b610747565b6000546001600160a01b031661012c565b6101a87f000000000000000000000000000000000000000000000000000000000000000081565b600354600454600554600654600754600854600954600a54600b5461023398979695949392919089565b60408051998a5260208a0198909852968801959095526060870193909352608086019190915260a085015260c084015260e083015261010082015261012001610140565b6101a87f000000000000000000000000000000000000000000000000000000000000000081565b61015c6102ac36600461112a565b610abd565b6101a860015481565b61015c6102c8366004611156565b610c51565b61012c7f000000000000000000000000000000000000000000000000000000000000000081565b61015c61030236600461112a565b610ce9565b6000546001600160a01b0316331461033a5760405162461bcd60e51b815260040161033190611173565b60405180910390fd5b427f000000000000000000000000000000000000000000000000000000000000000060015461036991906111be565b10156103875760405162461bcd60e51b8152600401610331906111d6565b6040516323b872dd60e01b8152336004820152306024820152604481018290527f00000000000000000000000000000000000000000000000000000000000000006001600160a01b0316906323b872dd906064016020604051808303816000875af11580156103fa573d6000803e3d6000fd5b505050506040513d601f19601f8201168201806040525081019061041e9190611229565b6104865760405162461bcd60e51b815260206004820152603360248201527f4c656e7343616d706169676e3a3a6465706f7369744275646765743a2043616e6044820152726e6f74207472616e7366657220746f6b656e7360681b6064820152608401610331565b50565b6000546001600160a01b031633146104b35760405162461bcd60e51b815260040161033190611173565b427f00000000000000000000000000000000000000000000000000000000000000006001546104e291906111be565b111561056a5760405162461bcd60e51b815260206004820152604b60248201527f4c656e7343616d706169676e3a3a77697468647261774275646765743a20596f60448201527f752063616e206f6e6c79207769746864726177207768656e2063616d7061696760648201526a1b881a5cc818db1bdcd95960aa1b608482015260a401610331565b7f00000000000000000000000000000000000000000000000000000000000000006001600160a01b031663a9059cbb6105ab6000546001600160a01b031690565b6040516370a0823160e01b81523060048201527f00000000000000000000000000000000000000000000000000000000000000006001600160a01b0316906370a0823190602401602060405180830381865afa15801561060f573d6000803e3d6000fd5b505050506040513d601f19601f82011682018060405250810190610633919061124b565b6040516001600160e01b031960e085901b1681526001600160a01b03909216600483015260248201526044016020604051808303816000875af115801561067e573d6000803e3d6000fd5b505050506040513d601f19601f820116820180604052508101906106a29190611229565b61070a5760405162461bcd60e51b815260206004820152603360248201527f4c656e7343616d706169676e3a3a77697468647261774275646765743a2043616044820152726e6e6f742077697468647261772066756e647360681b6064820152608401610331565b6000600155565b6000546001600160a01b0316331461073b5760405162461bcd60e51b815260040161033190611173565b6107456000610e7d565b565b60405163037c14f560e51b81523360048201527f00000000000000000000000000000000000000000000000000000000000000006001600160a01b031690636f829ea0906024016020604051808303816000875af11580156107ad573d6000803e3d6000fd5b505050506040513d601f19601f820116820180604052508101906107d1919061124b565b61083c5760405162461bcd60e51b815260206004820152603660248201527f4c656e7343616d706169676e3a3a6f6e6c7957686974656c69737465643a204160448201527519191c995cdcc81b9bdd081dda1a5d195b1a5cdd195960521b6064820152608401610331565b427f000000000000000000000000000000000000000000000000000000000000000060015461086b91906111be565b10156108895760405162461bcd60e51b8152600401610331906111d6565b3360009081526002602052604090205460ff16156108ff5760405162461bcd60e51b815260206004820152602d60248201527f4c656e7343616d7061696e673a3a68616e646c65506f73743a20506f7374206160448201526c1b1c9958591e481c1bdcdd1959609a1b6064820152608401610331565b604051631da8409960e11b815260009073db46d1dc155634fbc732f92e853b10b288ad5a1d90633b50813290610939908590600401611307565b6020604051808303816000875af1158015610958573d6000803e3d6000fd5b505050506040513d601f19601f8201168201806040525081019061097c919061124b565b9050806109de5760405162461bcd60e51b815260206004820152602a60248201527f4c656e7343616d7061696e673a3a68616e646c65506f73743a506f7374206e6f6044820152691d081858d8d95c1d195960b21b6064820152608401610331565b60405163037c14f560e51b81523360048201526000907f00000000000000000000000000000000000000000000000000000000000000006001600160a01b031690636f829ea0906024016020604051808303816000875af1158015610a47573d6000803e3d6000fd5b505050506040513d601f19601f82011682018060405250810190610a6b919061124b565b600354610a7891906113db565b9050600080610a8c83600360020154610ecd565b915091508115610ab657336000908152600260205260409020805460ff1916600117905560058190555b5050505050565b7f00000000000000000000000000000000000000000000000000000000000000006001600160a01b0316635aa6e6756040518163ffffffff1660e01b81526004016020604051808303816000875af1158015610b1d573d6000803e3d6000fd5b505050506040513d601f19601f82011682018060405250810190610b4191906113fa565b6001600160a01b0316336001600160a01b031614610b715760405162461bcd60e51b815260040161033190611417565b60405163037c14f560e51b81526001600160a01b0383811660048301527f00000000000000000000000000000000000000000000000000000000000000001690636f829ea0906024016020604051808303816000875af1158015610bd9573d6000803e3d6000fd5b505050506040513d601f19601f82011682018060405250810190610bfd919061124b565b610c195760405162461bcd60e51b815260040161033190611484565b600654600090610c2a9083906113db565b9050600080610c3e83600360050154610ecd565b915091508115610ab65760085550505050565b6000546001600160a01b03163314610c7b5760405162461bcd60e51b815260040161033190611173565b6001600160a01b038116610ce05760405162461bcd60e51b815260206004820152602660248201527f4f776e61626c653a206e6577206f776e657220697320746865207a65726f206160448201526564647265737360d01b6064820152608401610331565b61048681610e7d565b7f00000000000000000000000000000000000000000000000000000000000000006001600160a01b0316635aa6e6756040518163ffffffff1660e01b81526004016020604051808303816000875af1158015610d49573d6000803e3d6000fd5b505050506040513d601f19601f82011682018060405250810190610d6d91906113fa565b6001600160a01b0316336001600160a01b031614610d9d5760405162461bcd60e51b815260040161033190611417565b60405163037c14f560e51b81526001600160a01b0383811660048301527f00000000000000000000000000000000000000000000000000000000000000001690636f829ea0906024016020604051808303816000875af1158015610e05573d6000803e3d6000fd5b505050506040513d601f19601f82011682018060405250810190610e29919061124b565b610e455760405162461bcd60e51b815260040161033190611484565b600954600090610e569083906113db565b9050600080610e6a83600360080154610ecd565b915091508115610ab657600b5550505050565b600080546001600160a01b038381166001600160a01b0319831681178455604051919092169283917f8be0079c531659141344cd1fd0a4f28419497f9722a3daafe3b4186f6b6457e09190a35050565b600080427f0000000000000000000000000000000000000000000000000000000000000000600154610eff91906111be565b1015610f1d5760405162461bcd60e51b8152600401610331906111d6565b82841115610f845760405162461bcd60e51b815260206004820152602e60248201527f4c656e7343616d706169676e3a3a5f7061796f7574506f73743a204d6178207060448201526d185e5bdd5d08195e18d95959195960921b6064820152608401610331565b7f00000000000000000000000000000000000000000000000000000000000000006001600160a01b031663a9059cbb3385871115610fc25785610fc4565b865b6040516001600160e01b031960e085901b1681526001600160a01b03909216600483015260248201526044016020604051808303816000875af115801561100f573d6000803e3d6000fd5b505050506040513d601f19601f820116820180604052508101906110339190611229565b6110925760405162461bcd60e51b815260206004820152602a60248201527f4c656e7343616d706169676e3a3a5f7061796f7574506f73743a205472616e7360448201526919995c8819985a5b195960b21b6064820152608401610331565b6001838511156110a35760006110ad565b6110ad85856114d6565b915091505b9250929050565b6000602082840312156110cb57600080fd5b5035919050565b6000602082840312156110e457600080fd5b813567ffffffffffffffff8111156110fb57600080fd5b8201610140818503121561110e57600080fd5b9392505050565b6001600160a01b038116811461048657600080fd5b6000806040838503121561113d57600080fd5b823561114881611115565b946020939093013593505050565b60006020828403121561116857600080fd5b813561110e81611115565b6020808252818101527f4f776e61626c653a2063616c6c6572206973206e6f7420746865206f776e6572604082015260600190565b634e487b7160e01b600052601160045260246000fd5b600082198211156111d1576111d16111a8565b500190565b60208082526033908201527f4c656e7343616d706169676e3a3a6e6f74457870697265643a2054696d6520656040820152723c3834b932b2103337b91031b0b6b830b4b3b760691b606082015260800190565b60006020828403121561123b57600080fd5b8151801515811461110e57600080fd5b60006020828403121561125d57600080fd5b5051919050565b6000808335601e1984360301811261127b57600080fd5b830160208101925035905067ffffffffffffffff81111561129b57600080fd5b8036038313156110b257600080fd5b81835281816020850137506000828201602090810191909152601f909101601f19169091010190565b803560ff81168082146112e557600080fd5b8352506020818101359083015260408082013590830152606090810135910152565b602081528135602082015260006113216020840184611264565b6101406040850152611338610160850182846112aa565b915050604084013561134981611115565b6001600160a01b031660608481019190915261136790850185611264565b601f198086850301608087015261137f8483856112aa565b93506080870135925061139183611115565b6001600160a01b03831660a08701526113ad60a0880188611264565b93509150808685030160c0870152506113c78383836112aa565b9250505061110e60e0840160c086016112d3565b60008160001904831182151516156113f5576113f56111a8565b500290565b60006020828403121561140c57600080fd5b815161110e81611115565b60208082526047908201527f4c656e7343616d706169676e3a3a6f6e6c6f6e6c79476f76794b65657065723a60408201527f204f6e6c7920676f7665726e616e63652063616e2063616c6c207468697320666060820152663ab731ba34b7b760c91b608082015260a00190565b60208082526032908201527f4c656e7343616d706169676e3a3a706179466f72436c69636b3a2041646472656040820152711cdcc81b9bdd081dda1a5d195b1a5cdd195960721b606082015260800190565b6000828210156114e8576114e86111a8565b50039056fea2646970667358221220fab9600672b025f6564b1508660dfd5aa8f1f01d84be9c49647e012e0faf0dfe64736f6c634300080a0033",
  "linkReferences": {},
  "deployedLinkReferences": {}
}